{
  "_format": "hh-sol-artifact-1",
  "contractName": "Database",
  "sourceName": "contracts/Database.sol",
  "abi": [
    {
      "anonymous": false,
      "inputs": [
        {
          "indexed": false,
          "internalType": "uint256",
          "name": "prescId",
          "type": "uint256"
        },
        {
          "indexed": true,
          "internalType": "address",
          "name": "pdf",
          "type": "address"
        },
        {
          "indexed": false,
          "internalType": "uint256",
          "name": "tokenId",
          "type": "uint256"
        },
        {
          "indexed": true,
          "internalType": "address",
          "name": "user",
          "type": "address"
        },
        {
          "indexed": true,
          "internalType": "address",
          "name": "doctor",
          "type": "address"
        }
      ],
      "name": "prescUploads",
      "type": "event"
    },
    {
      "anonymous": false,
      "inputs": [
        {
          "indexed": false,
          "internalType": "uint256",
          "name": "recordId",
          "type": "uint256"
        },
        {
          "indexed": true,
          "internalType": "address",
          "name": "pdf",
          "type": "address"
        },
        {
          "indexed": false,
          "internalType": "uint256",
          "name": "tokenId",
          "type": "uint256"
        },
        {
          "indexed": true,
          "internalType": "address",
          "name": "user",
          "type": "address"
        },
        {
          "indexed": true,
          "internalType": "address",
          "name": "doctor",
          "type": "address"
        }
      ],
      "name": "recordUploads",
      "type": "event"
    },
    {
      "inputs": [],
      "name": "prescCount",
      "outputs": [
        {
          "internalType": "uint256",
          "name": "",
          "type": "uint256"
        }
      ],
      "stateMutability": "view",
      "type": "function"
    },
    {
      "inputs": [
        {
          "internalType": "uint256",
          "name": "",
          "type": "uint256"
        }
      ],
      "name": "prescs",
      "outputs": [
        {
          "internalType": "uint256",
          "name": "prescId",
          "type": "uint256"
        },
        {
          "internalType": "contract IERC721",
          "name": "pdf",
          "type": "address"
        },
        {
          "internalType": "uint256",
          "name": "tokenId",
          "type": "uint256"
        },
        {
          "internalType": "address payable",
          "name": "user",
          "type": "address"
        },
        {
          "internalType": "address payable",
          "name": "doctor",
          "type": "address"
        }
      ],
      "stateMutability": "view",
      "type": "function"
    },
    {
      "inputs": [],
      "name": "recordCount",
      "outputs": [
        {
          "internalType": "uint256",
          "name": "",
          "type": "uint256"
        }
      ],
      "stateMutability": "view",
      "type": "function"
    },
    {
      "inputs": [
        {
          "internalType": "uint256",
          "name": "",
          "type": "uint256"
        }
      ],
      "name": "records",
      "outputs": [
        {
          "internalType": "uint256",
          "name": "recordId",
          "type": "uint256"
        },
        {
          "internalType": "contract IERC721",
          "name": "pdf",
          "type": "address"
        },
        {
          "internalType": "uint256",
          "name": "tokenId",
          "type": "uint256"
        },
        {
          "internalType": "address payable",
          "name": "user",
          "type": "address"
        },
        {
          "internalType": "address payable",
          "name": "doctor",
          "type": "address"
        }
      ],
      "stateMutability": "view",
      "type": "function"
    },
    {
      "inputs": [
        {
          "internalType": "contract IERC721",
          "name": "_pdf",
          "type": "address"
        },
        {
          "internalType": "address payable",
          "name": "_user",
          "type": "address"
        },
        {
          "internalType": "uint256",
          "name": "_tokenId",
          "type": "uint256"
        },
        {
          "internalType": "bool",
          "name": "doctor",
          "type": "bool"
        }
      ],
      "name": "uploadPresc",
      "outputs": [],
      "stateMutability": "nonpayable",
      "type": "function"
    },
    {
      "inputs": [
        {
          "internalType": "contract IERC721",
          "name": "_pdf",
          "type": "address"
        },
        {
          "internalType": "address payable",
          "name": "_user",
          "type": "address"
        },
        {
          "internalType": "uint256",
          "name": "_tokenId",
          "type": "uint256"
        },
        {
          "internalType": "bool",
          "name": "doctor",
          "type": "bool"
        }
      ],
      "name": "uploadRecord",
      "outputs": [],
      "stateMutability": "nonpayable",
      "type": "function"
    }
  ],
  "bytecode": "0x608060405234801561001057600080fd5b506001600081905550610d66806100286000396000f3fe608060405234801561001057600080fd5b50600436106100625760003560e01c80631b5946d8146100675780633446106714610083578063900407bc146100b75780639e44e64c146100d5578063a0927e9e14610109578063fe4f6e4714610125575b600080fd5b610081600480360381019061007c9190610a2c565b610143565b005b61009d60048036038101906100989190610a93565b61045e565b6040516100ae959493929190610b3d565b60405180910390f35b6100bf6104f4565b6040516100cc9190610b90565b60405180910390f35b6100ef60048036038101906100ea9190610a93565b6104fa565b604051610100959493929190610b3d565b60405180910390f35b610123600480360381019061011e9190610a2c565b610590565b005b61012d6108ab565b60405161013a9190610b90565b60405180910390f35b61014b6108b1565b6002600081548092919061015e90610bda565b919050555080156103c9578373ffffffffffffffffffffffffffffffffffffffff166323b872dd3385856040518463ffffffff1660e01b81526004016101a693929190610c53565b600060405180830381600087803b1580156101c057600080fd5b505af11580156101d4573d6000803e3d6000fd5b505050506040518060a0016040528060025481526020018573ffffffffffffffffffffffffffffffffffffffff1681526020018381526020018473ffffffffffffffffffffffffffffffffffffffff1681526020013373ffffffffffffffffffffffffffffffffffffffff168152506004600060025481526020019081526020016000206000820151816000015560208201518160010160006101000a81548173ffffffffffffffffffffffffffffffffffffffff021916908373ffffffffffffffffffffffffffffffffffffffff1602179055506040820151816002015560608201518160030160006101000a81548173ffffffffffffffffffffffffffffffffffffffff021916908373ffffffffffffffffffffffffffffffffffffffff16021790555060808201518160040160006101000a81548173ffffffffffffffffffffffffffffffffffffffff021916908373ffffffffffffffffffffffffffffffffffffffff1602179055509050503373ffffffffffffffffffffffffffffffffffffffff168373ffffffffffffffffffffffffffffffffffffffff168573ffffffffffffffffffffffffffffffffffffffff167fadda78b2265cfe89772ee76fed98ee539d1933ff66cdeec2ab04b13c2bfbf7c5600254866040516103bc929190610c8a565b60405180910390a4610450565b8061044f578273ffffffffffffffffffffffffffffffffffffffff168373ffffffffffffffffffffffffffffffffffffffff168573ffffffffffffffffffffffffffffffffffffffff167fadda78b2265cfe89772ee76fed98ee539d1933ff66cdeec2ab04b13c2bfbf7c560025486604051610446929190610c8a565b60405180910390a45b5b610458610901565b50505050565b60036020528060005260406000206000915090508060000154908060010160009054906101000a900473ffffffffffffffffffffffffffffffffffffffff16908060020154908060030160009054906101000a900473ffffffffffffffffffffffffffffffffffffffff16908060040160009054906101000a900473ffffffffffffffffffffffffffffffffffffffff16905085565b60015481565b60046020528060005260406000206000915090508060000154908060010160009054906101000a900473ffffffffffffffffffffffffffffffffffffffff16908060020154908060030160009054906101000a900473ffffffffffffffffffffffffffffffffffffffff16908060040160009054906101000a900473ffffffffffffffffffffffffffffffffffffffff16905085565b6105986108b1565b600160008154809291906105ab90610bda565b91905055508015610816578373ffffffffffffffffffffffffffffffffffffffff166323b872dd3385856040518463ffffffff1660e01b81526004016105f393929190610c53565b600060405180830381600087803b15801561060d57600080fd5b505af1158015610621573d6000803e3d6000fd5b505050506040518060a0016040528060015481526020018573ffffffffffffffffffffffffffffffffffffffff1681526020018381526020018473ffffffffffffffffffffffffffffffffffffffff1681526020013373ffffffffffffffffffffffffffffffffffffffff168152506003600060015481526020019081526020016000206000820151816000015560208201518160010160006101000a81548173ffffffffffffffffffffffffffffffffffffffff021916908373ffffffffffffffffffffffffffffffffffffffff1602179055506040820151816002015560608201518160030160006101000a81548173ffffffffffffffffffffffffffffffffffffffff021916908373ffffffffffffffffffffffffffffffffffffffff16021790555060808201518160040160006101000a81548173ffffffffffffffffffffffffffffffffffffffff021916908373ffffffffffffffffffffffffffffffffffffffff1602179055509050503373ffffffffffffffffffffffffffffffffffffffff168373ffffffffffffffffffffffffffffffffffffffff168573ffffffffffffffffffffffffffffffffffffffff167f159b4f968354e59ed92d9df056b2ce2253f39c607d48fc8b2d1e23cbb296507960015486604051610809929190610c8a565b60405180910390a461089d565b8061089c578273ffffffffffffffffffffffffffffffffffffffff168373ffffffffffffffffffffffffffffffffffffffff168573ffffffffffffffffffffffffffffffffffffffff167f159b4f968354e59ed92d9df056b2ce2253f39c607d48fc8b2d1e23cbb296507960015486604051610893929190610c8a565b60405180910390a45b5b6108a5610901565b50505050565b60025481565b600260005414156108f7576040517f08c379a00000000000000000000000000000000000000000000000000000000081526004016108ee90610d10565b60405180910390fd5b6002600081905550565b6001600081905550565b600080fd5b600073ffffffffffffffffffffffffffffffffffffffff82169050919050565b600061093b82610910565b9050919050565b600061094d82610930565b9050919050565b61095d81610942565b811461096857600080fd5b50565b60008135905061097a81610954565b92915050565b600061098b82610910565b9050919050565b61099b81610980565b81146109a657600080fd5b50565b6000813590506109b881610992565b92915050565b6000819050919050565b6109d1816109be565b81146109dc57600080fd5b50565b6000813590506109ee816109c8565b92915050565b60008115159050919050565b610a09816109f4565b8114610a1457600080fd5b50565b600081359050610a2681610a00565b92915050565b60008060008060808587031215610a4657610a4561090b565b5b6000610a548782880161096b565b9450506020610a65878288016109a9565b9350506040610a76878288016109df565b9250506060610a8787828801610a17565b91505092959194509250565b600060208284031215610aa957610aa861090b565b5b6000610ab7848285016109df565b91505092915050565b610ac9816109be565b82525050565b6000819050919050565b6000610af4610aef610aea84610910565b610acf565b610910565b9050919050565b6000610b0682610ad9565b9050919050565b6000610b1882610afb565b9050919050565b610b2881610b0d565b82525050565b610b3781610980565b82525050565b600060a082019050610b526000830188610ac0565b610b5f6020830187610b1f565b610b6c6040830186610ac0565b610b796060830185610b2e565b610b866080830184610b2e565b9695505050505050565b6000602082019050610ba56000830184610ac0565b92915050565b7f4e487b7100000000000000000000000000000000000000000000000000000000600052601160045260246000fd5b6000610be5826109be565b91507fffffffffffffffffffffffffffffffffffffffffffffffffffffffffffffffff821415610c1857610c17610bab565b5b600182019050919050565b610c2c81610930565b82525050565b6000610c3d82610afb565b9050919050565b610c4d81610c32565b82525050565b6000606082019050610c686000830186610c23565b610c756020830185610c44565b610c826040830184610ac0565b949350505050565b6000604082019050610c9f6000830185610ac0565b610cac6020830184610ac0565b9392505050565b600082825260208201905092915050565b7f5265656e7472616e637947756172643a207265656e7472616e742063616c6c00600082015250565b6000610cfa601f83610cb3565b9150610d0582610cc4565b602082019050919050565b60006020820190508181036000830152610d2981610ced565b905091905056fea2646970667358221220eaa9ea8a7b5d4c5098089357742396980d36218ad245cb9936c66c350821bed264736f6c63430008090033",
  "linkReferences": {},
  "deployedLinkReferences": {}
}