{
  "_format": "hh-sol-artifact-1",
  "contractName": "PDF",
  "sourceName": "contracts/PDF.sol",
  "abi": [
    {
      "inputs": [],
      "stateMutability": "nonpayable",
      "type": "constructor"
    },
    {
      "anonymous": false,
      "inputs": [
        {
          "indexed": true,
          "internalType": "address",
          "name": "owner",
          "type": "address"
        },
        {
          "indexed": true,
          "internalType": "address",
          "name": "approved",
          "type": "address"
        },
        {
          "indexed": true,
          "internalType": "uint256",
          "name": "tokenId",
          "type": "uint256"
        }
      ],
      "name": "Approval",
      "type": "event"
    },
    {
      "anonymous": false,
      "inputs": [
        {
          "indexed": true,
          "internalType": "address",
          "name": "owner",
          "type": "address"
        },
        {
          "indexed": true,
          "internalType": "address",
          "name": "operator",
          "type": "address"
        },
        {
          "indexed": false,
          "internalType": "bool",
          "name": "approved",
          "type": "bool"
        }
      ],
      "name": "ApprovalForAll",
      "type": "event"
    },
    {
      "anonymous": false,
      "inputs": [
        {
          "indexed": true,
          "internalType": "address",
          "name": "from",
          "type": "address"
        },
        {
          "indexed": true,
          "internalType": "address",
          "name": "to",
          "type": "address"
        },
        {
          "indexed": true,
          "internalType": "uint256",
          "name": "tokenId",
          "type": "uint256"
        }
      ],
      "name": "Transfer",
      "type": "event"
    },
    {
      "inputs": [
        {
          "internalType": "address",
          "name": "to",
          "type": "address"
        },
        {
          "internalType": "uint256",
          "name": "tokenId",
          "type": "uint256"
        }
      ],
      "name": "approve",
      "outputs": [],
      "stateMutability": "nonpayable",
      "type": "function"
    },
    {
      "inputs": [
        {
          "internalType": "address",
          "name": "owner",
          "type": "address"
        }
      ],
      "name": "balanceOf",
      "outputs": [
        {
          "internalType": "uint256",
          "name": "",
          "type": "uint256"
        }
      ],
      "stateMutability": "view",
      "type": "function"
    },
    {
      "inputs": [
        {
          "internalType": "uint256",
          "name": "tokenId",
          "type": "uint256"
        }
      ],
      "name": "getApproved",
      "outputs": [
        {
          "internalType": "address",
          "name": "",
          "type": "address"
        }
      ],
      "stateMutability": "view",
      "type": "function"
    },
    {
      "inputs": [
        {
          "internalType": "address",
          "name": "owner",
          "type": "address"
        },
        {
          "internalType": "address",
          "name": "operator",
          "type": "address"
        }
      ],
      "name": "isApprovedForAll",
      "outputs": [
        {
          "internalType": "bool",
          "name": "",
          "type": "bool"
        }
      ],
      "stateMutability": "view",
      "type": "function"
    },
    {
      "inputs": [
        {
          "internalType": "string",
          "name": "_tokenURI",
          "type": "string"
        }
      ],
      "name": "mint",
      "outputs": [
        {
          "internalType": "uint256",
          "name": "",
          "type": "uint256"
        }
      ],
      "stateMutability": "nonpayable",
      "type": "function"
    },
    {
      "inputs": [],
      "name": "name",
      "outputs": [
        {
          "internalType": "string",
          "name": "",
          "type": "string"
        }
      ],
      "stateMutability": "view",
      "type": "function"
    },
    {
      "inputs": [
        {
          "internalType": "uint256",
          "name": "tokenId",
          "type": "uint256"
        }
      ],
      "name": "ownerOf",
      "outputs": [
        {
          "internalType": "address",
          "name": "",
          "type": "address"
        }
      ],
      "stateMutability": "view",
      "type": "function"
    },
    {
      "inputs": [
        {
          "internalType": "address",
          "name": "from",
          "type": "address"
        },
        {
          "internalType": "address",
          "name": "to",
          "type": "address"
        },
        {
          "internalType": "uint256",
          "name": "tokenId",
          "type": "uint256"
        }
      ],
      "name": "safeTransferFrom",
      "outputs": [],
      "stateMutability": "nonpayable",
      "type": "function"
    },
    {
      "inputs": [
        {
          "internalType": "address",
          "name": "from",
          "type": "address"
        },
        {
          "internalType": "address",
          "name": "to",
          "type": "address"
        },
        {
          "internalType": "uint256",
          "name": "tokenId",
          "type": "uint256"
        },
        {
          "internalType": "bytes",
          "name": "data",
          "type": "bytes"
        }
      ],
      "name": "safeTransferFrom",
      "outputs": [],
      "stateMutability": "nonpayable",
      "type": "function"
    },
    {
      "inputs": [
        {
          "internalType": "address",
          "name": "operator",
          "type": "address"
        },
        {
          "internalType": "bool",
          "name": "approved",
          "type": "bool"
        }
      ],
      "name": "setApprovalForAll",
      "outputs": [],
      "stateMutability": "nonpayable",
      "type": "function"
    },
    {
      "inputs": [
        {
          "internalType": "bytes4",
          "name": "interfaceId",
          "type": "bytes4"
        }
      ],
      "name": "supportsInterface",
      "outputs": [
        {
          "internalType": "bool",
          "name": "",
          "type": "bool"
        }
      ],
      "stateMutability": "view",
      "type": "function"
    },
    {
      "inputs": [],
      "name": "symbol",
      "outputs": [
        {
          "internalType": "string",
          "name": "",
          "type": "string"
        }
      ],
      "stateMutability": "view",
      "type": "function"
    },
    {
      "inputs": [],
      "name": "tokenCount",
      "outputs": [
        {
          "internalType": "uint256",
          "name": "",
          "type": "uint256"
        }
      ],
      "stateMutability": "view",
      "type": "function"
    },
    {
      "inputs": [
        {
          "internalType": "uint256",
          "name": "tokenId",
          "type": "uint256"
        }
      ],
      "name": "tokenURI",
      "outputs": [
        {
          "internalType": "string",
          "name": "",
          "type": "string"
        }
      ],
      "stateMutability": "view",
      "type": "function"
    },
    {
      "inputs": [
        {
          "internalType": "address",
          "name": "from",
          "type": "address"
        },
        {
          "internalType": "address",
          "name": "to",
          "type": "address"
        },
        {
          "internalType": "uint256",
          "name": "tokenId",
          "type": "uint256"
        }
      ],
      "name": "transferFrom",
      "outputs": [],
      "stateMutability": "nonpayable",
      "type": "function"
    }
  ],
  "bytecode": "0x60806040523480156200001157600080fd5b506040518060400160405280600781526020017f4d65645f455448000000000000000000000000000000000000000000000000008152506040518060400160405280600481526020017f6d65746800000000000000000000000000000000000000000000000000000000815250816000908051906020019062000096929190620000b8565b508060019080519060200190620000af929190620000b8565b505050620001cd565b828054620000c69062000197565b90600052602060002090601f016020900481019282620000ea576000855562000136565b82601f106200010557805160ff191683800117855562000136565b8280016001018555821562000136579182015b828111156200013557825182559160200191906001019062000118565b5b50905062000145919062000149565b5090565b5b80821115620001645760008160009055506001016200014a565b5090565b7f4e487b7100000000000000000000000000000000000000000000000000000000600052602260045260246000fd5b60006002820490506001821680620001b057607f821691505b60208210811415620001c757620001c662000168565b5b50919050565b612b3680620001dd6000396000f3fe608060405234801561001057600080fd5b50600436106100f55760003560e01c806370a0823111610097578063b88d4fde11610066578063b88d4fde14610284578063c87b56dd146102a0578063d85d3d27146102d0578063e985e9c514610300576100f5565b806370a08231146101fc57806395d89b411461022c5780639f181b5e1461024a578063a22cb46514610268576100f5565b8063095ea7b3116100d3578063095ea7b31461017857806323b872dd1461019457806342842e0e146101b05780636352211e146101cc576100f5565b806301ffc9a7146100fa57806306fdde031461012a578063081812fc14610148575b600080fd5b610114600480360381019061010f9190611baa565b610330565b6040516101219190611bf2565b60405180910390f35b610132610412565b60405161013f9190611ca6565b60405180910390f35b610162600480360381019061015d9190611cfe565b6104a4565b60405161016f9190611d6c565b60405180910390f35b610192600480360381019061018d9190611db3565b6104ea565b005b6101ae60048036038101906101a99190611df3565b610602565b005b6101ca60048036038101906101c59190611df3565b610662565b005b6101e660048036038101906101e19190611cfe565b610682565b6040516101f39190611d6c565b60405180910390f35b61021660048036038101906102119190611e46565b610709565b6040516102239190611e82565b60405180910390f35b6102346107c1565b6040516102419190611ca6565b60405180910390f35b610252610853565b60405161025f9190611e82565b60405180910390f35b610282600480360381019061027d9190611ec9565b610859565b005b61029e6004803603810190610299919061203e565b61086f565b005b6102ba60048036038101906102b59190611cfe565b6108d1565b6040516102c79190611ca6565b60405180910390f35b6102ea60048036038101906102e59190612162565b6109e4565b6040516102f79190611e82565b60405180910390f35b61031a600480360381019061031591906121ab565b610a20565b6040516103279190611bf2565b60405180910390f35b60007f80ac58cd000000000000000000000000000000000000000000000000000000007bffffffffffffffffffffffffffffffffffffffffffffffffffffffff1916827bffffffffffffffffffffffffffffffffffffffffffffffffffffffff191614806103fb57507f5b5e139f000000000000000000000000000000000000000000000000000000007bffffffffffffffffffffffffffffffffffffffffffffffffffffffff1916827bffffffffffffffffffffffffffffffffffffffffffffffffffffffff1916145b8061040b575061040a82610ab4565b5b9050919050565b6060600080546104219061221a565b80601f016020809104026020016040519081016040528092919081815260200182805461044d9061221a565b801561049a5780601f1061046f5761010080835404028352916020019161049a565b820191906000526020600020905b81548152906001019060200180831161047d57829003601f168201915b5050505050905090565b60006104af82610b1e565b6004600083815260200190815260200160002060009054906101000a900473ffffffffffffffffffffffffffffffffffffffff169050919050565b60006104f582610682565b90508073ffffffffffffffffffffffffffffffffffffffff168373ffffffffffffffffffffffffffffffffffffffff161415610566576040517f08c379a000000000000000000000000000000000000000000000000000000000815260040161055d906122be565b60405180910390fd5b8073ffffffffffffffffffffffffffffffffffffffff16610585610b69565b73ffffffffffffffffffffffffffffffffffffffff1614806105b457506105b3816105ae610b69565b610a20565b5b6105f3576040517f08c379a00000000000000000000000000000000000000000000000000000000081526004016105ea90612350565b60405180910390fd5b6105fd8383610b71565b505050565b61061361060d610b69565b82610c2a565b610652576040517f08c379a0000000000000000000000000000000000000000000000000000000008152600401610649906123e2565b60405180910390fd5b61065d838383610cbf565b505050565b61067d8383836040518060200160405280600081525061086f565b505050565b60008061068e83610fb9565b9050600073ffffffffffffffffffffffffffffffffffffffff168173ffffffffffffffffffffffffffffffffffffffff161415610700576040517f08c379a00000000000000000000000000000000000000000000000000000000081526004016106f79061244e565b60405180910390fd5b80915050919050565b60008073ffffffffffffffffffffffffffffffffffffffff168273ffffffffffffffffffffffffffffffffffffffff16141561077a576040517f08c379a0000000000000000000000000000000000000000000000000000000008152600401610771906124e0565b60405180910390fd5b600360008373ffffffffffffffffffffffffffffffffffffffff1673ffffffffffffffffffffffffffffffffffffffff168152602001908152602001600020549050919050565b6060600180546107d09061221a565b80601f01602080910402602001604051908101604052809291908181526020018280546107fc9061221a565b80156108495780601f1061081e57610100808354040283529160200191610849565b820191906000526020600020905b81548152906001019060200180831161082c57829003601f168201915b5050505050905090565b60075481565b61086b610864610b69565b8383610ff6565b5050565b61088061087a610b69565b83610c2a565b6108bf576040517f08c379a00000000000000000000000000000000000000000000000000000000081526004016108b6906123e2565b60405180910390fd5b6108cb84848484611163565b50505050565b60606108dc82610b1e565b60006006600084815260200190815260200160002080546108fc9061221a565b80601f01602080910402602001604051908101604052809291908181526020018280546109289061221a565b80156109755780601f1061094a57610100808354040283529160200191610975565b820191906000526020600020905b81548152906001019060200180831161095857829003601f168201915b5050505050905060006109866111bf565b905060008151141561099c5781925050506109df565b6000825111156109d15780826040516020016109b992919061253c565b604051602081830303815290604052925050506109df565b6109da846111d6565b925050505b919050565b6000600760008154809291906109f99061258f565b9190505550610a0a3360075461123e565b610a166007548361125c565b6007549050919050565b6000600560008473ffffffffffffffffffffffffffffffffffffffff1673ffffffffffffffffffffffffffffffffffffffff16815260200190815260200160002060008373ffffffffffffffffffffffffffffffffffffffff1673ffffffffffffffffffffffffffffffffffffffff16815260200190815260200160002060009054906101000a900460ff16905092915050565b60007f01ffc9a7000000000000000000000000000000000000000000000000000000007bffffffffffffffffffffffffffffffffffffffffffffffffffffffff1916827bffffffffffffffffffffffffffffffffffffffffffffffffffffffff1916149050919050565b610b27816112d0565b610b66576040517f08c379a0000000000000000000000000000000000000000000000000000000008152600401610b5d9061244e565b60405180910390fd5b50565b600033905090565b816004600083815260200190815260200160002060006101000a81548173ffffffffffffffffffffffffffffffffffffffff021916908373ffffffffffffffffffffffffffffffffffffffff160217905550808273ffffffffffffffffffffffffffffffffffffffff16610be483610682565b73ffffffffffffffffffffffffffffffffffffffff167f8c5be1e5ebec7d5bd14f71427d1e84f3dd0314c0f7b2291e5b200ac8c7c3b92560405160405180910390a45050565b600080610c3683610682565b90508073ffffffffffffffffffffffffffffffffffffffff168473ffffffffffffffffffffffffffffffffffffffff161480610c785750610c778185610a20565b5b80610cb657508373ffffffffffffffffffffffffffffffffffffffff16610c9e846104a4565b73ffffffffffffffffffffffffffffffffffffffff16145b91505092915050565b8273ffffffffffffffffffffffffffffffffffffffff16610cdf82610682565b73ffffffffffffffffffffffffffffffffffffffff1614610d35576040517f08c379a0000000000000000000000000000000000000000000000000000000008152600401610d2c9061264a565b60405180910390fd5b600073ffffffffffffffffffffffffffffffffffffffff168273ffffffffffffffffffffffffffffffffffffffff161415610da5576040517f08c379a0000000000000000000000000000000000000000000000000000000008152600401610d9c906126dc565b60405180910390fd5b610db28383836001611311565b8273ffffffffffffffffffffffffffffffffffffffff16610dd282610682565b73ffffffffffffffffffffffffffffffffffffffff1614610e28576040517f08c379a0000000000000000000000000000000000000000000000000000000008152600401610e1f9061264a565b60405180910390fd5b6004600082815260200190815260200160002060006101000a81549073ffffffffffffffffffffffffffffffffffffffff02191690556001600360008573ffffffffffffffffffffffffffffffffffffffff1673ffffffffffffffffffffffffffffffffffffffff168152602001908152602001600020600082825403925050819055506001600360008473ffffffffffffffffffffffffffffffffffffffff1673ffffffffffffffffffffffffffffffffffffffff16815260200190815260200160002060008282540192505081905550816002600083815260200190815260200160002060006101000a81548173ffffffffffffffffffffffffffffffffffffffff021916908373ffffffffffffffffffffffffffffffffffffffff160217905550808273ffffffffffffffffffffffffffffffffffffffff168473ffffffffffffffffffffffffffffffffffffffff167fddf252ad1be2c89b69c2b068fc378daa952ba7f163c4a11628f55a4df523b3ef60405160405180910390a4610fb48383836001611437565b505050565b60006002600083815260200190815260200160002060009054906101000a900473ffffffffffffffffffffffffffffffffffffffff169050919050565b8173ffffffffffffffffffffffffffffffffffffffff168373ffffffffffffffffffffffffffffffffffffffff161415611065576040517f08c379a000000000000000000000000000000000000000000000000000000000815260040161105c90612748565b60405180910390fd5b80600560008573ffffffffffffffffffffffffffffffffffffffff1673ffffffffffffffffffffffffffffffffffffffff16815260200190815260200160002060008473ffffffffffffffffffffffffffffffffffffffff1673ffffffffffffffffffffffffffffffffffffffff16815260200190815260200160002060006101000a81548160ff0219169083151502179055508173ffffffffffffffffffffffffffffffffffffffff168373ffffffffffffffffffffffffffffffffffffffff167f17307eab39ab6107e8899845ad3d59bd9653f200f220920489ca2b5937696c31836040516111569190611bf2565b60405180910390a3505050565b61116e848484610cbf565b61117a8484848461143d565b6111b9576040517f08c379a00000000000000000000000000000000000000000000000000000000081526004016111b0906127da565b60405180910390fd5b50505050565b606060405180602001604052806000815250905090565b60606111e182610b1e565b60006111eb6111bf565b9050600081511161120b5760405180602001604052806000815250611236565b80611215846115d4565b60405160200161122692919061253c565b6040516020818303038152906040525b915050919050565b6112588282604051806020016040528060008152506116ac565b5050565b611265826112d0565b6112a4576040517f08c379a000000000000000000000000000000000000000000000000000000000815260040161129b9061286c565b60405180910390fd5b806006600084815260200190815260200160002090805190602001906112cb929190611a9b565b505050565b60008073ffffffffffffffffffffffffffffffffffffffff166112f283610fb9565b73ffffffffffffffffffffffffffffffffffffffff1614159050919050565b600181111561143157600073ffffffffffffffffffffffffffffffffffffffff168473ffffffffffffffffffffffffffffffffffffffff16146113a55780600360008673ffffffffffffffffffffffffffffffffffffffff1673ffffffffffffffffffffffffffffffffffffffff168152602001908152602001600020600082825461139d919061288c565b925050819055505b600073ffffffffffffffffffffffffffffffffffffffff168373ffffffffffffffffffffffffffffffffffffffff16146114305780600360008573ffffffffffffffffffffffffffffffffffffffff1673ffffffffffffffffffffffffffffffffffffffff168152602001908152602001600020600082825461142891906128c0565b925050819055505b5b50505050565b50505050565b600061145e8473ffffffffffffffffffffffffffffffffffffffff16611707565b156115c7578373ffffffffffffffffffffffffffffffffffffffff1663150b7a02611487610b69565b8786866040518563ffffffff1660e01b81526004016114a9949392919061296b565b602060405180830381600087803b1580156114c357600080fd5b505af19250505080156114f457506040513d601f19601f820116820180604052508101906114f191906129cc565b60015b611577573d8060008114611524576040519150601f19603f3d011682016040523d82523d6000602084013e611529565b606091505b5060008151141561156f576040517f08c379a0000000000000000000000000000000000000000000000000000000008152600401611566906127da565b60405180910390fd5b805181602001fd5b63150b7a0260e01b7bffffffffffffffffffffffffffffffffffffffffffffffffffffffff1916817bffffffffffffffffffffffffffffffffffffffffffffffffffffffff1916149150506115cc565b600190505b949350505050565b6060600060016115e38461172a565b01905060008167ffffffffffffffff81111561160257611601611f13565b5b6040519080825280601f01601f1916602001820160405280156116345781602001600182028036833780820191505090505b509050600082602001820190505b6001156116a1578080600190039150507f3031323334353637383961626364656600000000000000000000000000000000600a86061a8153600a858161168b5761168a6129f9565b5b049450600085141561169c576116a1565b611642565b819350505050919050565b6116b6838361187d565b6116c3600084848461143d565b611702576040517f08c379a00000000000000000000000000000000000000000000000000000000081526004016116f9906127da565b60405180910390fd5b505050565b6000808273ffffffffffffffffffffffffffffffffffffffff163b119050919050565b600080600090507a184f03e93ff9f4daa797ed6e38ed64bf6a1f0100000000000000008310611788577a184f03e93ff9f4daa797ed6e38ed64bf6a1f010000000000000000838161177e5761177d6129f9565b5b0492506040810190505b6d04ee2d6d415b85acef810000000083106117c5576d04ee2d6d415b85acef810000000083816117bb576117ba6129f9565b5b0492506020810190505b662386f26fc1000083106117f457662386f26fc1000083816117ea576117e96129f9565b5b0492506010810190505b6305f5e100831061181d576305f5e1008381611813576118126129f9565b5b0492506008810190505b6127108310611842576127108381611838576118376129f9565b5b0492506004810190505b60648310611865576064838161185b5761185a6129f9565b5b0492506002810190505b600a8310611874576001810190505b80915050919050565b600073ffffffffffffffffffffffffffffffffffffffff168273ffffffffffffffffffffffffffffffffffffffff1614156118ed576040517f08c379a00000000000000000000000000000000000000000000000000000000081526004016118e490612a74565b60405180910390fd5b6118f6816112d0565b15611936576040517f08c379a000000000000000000000000000000000000000000000000000000000815260040161192d90612ae0565b60405180910390fd5b611944600083836001611311565b61194d816112d0565b1561198d576040517f08c379a000000000000000000000000000000000000000000000000000000000815260040161198490612ae0565b60405180910390fd5b6001600360008473ffffffffffffffffffffffffffffffffffffffff1673ffffffffffffffffffffffffffffffffffffffff16815260200190815260200160002060008282540192505081905550816002600083815260200190815260200160002060006101000a81548173ffffffffffffffffffffffffffffffffffffffff021916908373ffffffffffffffffffffffffffffffffffffffff160217905550808273ffffffffffffffffffffffffffffffffffffffff16600073ffffffffffffffffffffffffffffffffffffffff167fddf252ad1be2c89b69c2b068fc378daa952ba7f163c4a11628f55a4df523b3ef60405160405180910390a4611a97600083836001611437565b5050565b828054611aa79061221a565b90600052602060002090601f016020900481019282611ac95760008555611b10565b82601f10611ae257805160ff1916838001178555611b10565b82800160010185558215611b10579182015b82811115611b0f578251825591602001919060010190611af4565b5b509050611b1d9190611b21565b5090565b5b80821115611b3a576000816000905550600101611b22565b5090565b6000604051905090565b600080fd5b600080fd5b60007fffffffff0000000000000000000000000000000000000000000000000000000082169050919050565b611b8781611b52565b8114611b9257600080fd5b50565b600081359050611ba481611b7e565b92915050565b600060208284031215611bc057611bbf611b48565b5b6000611bce84828501611b95565b91505092915050565b60008115159050919050565b611bec81611bd7565b82525050565b6000602082019050611c076000830184611be3565b92915050565b600081519050919050565b600082825260208201905092915050565b60005b83811015611c47578082015181840152602081019050611c2c565b83811115611c56576000848401525b50505050565b6000601f19601f8301169050919050565b6000611c7882611c0d565b611c828185611c18565b9350611c92818560208601611c29565b611c9b81611c5c565b840191505092915050565b60006020820190508181036000830152611cc08184611c6d565b905092915050565b6000819050919050565b611cdb81611cc8565b8114611ce657600080fd5b50565b600081359050611cf881611cd2565b92915050565b600060208284031215611d1457611d13611b48565b5b6000611d2284828501611ce9565b91505092915050565b600073ffffffffffffffffffffffffffffffffffffffff82169050919050565b6000611d5682611d2b565b9050919050565b611d6681611d4b565b82525050565b6000602082019050611d816000830184611d5d565b92915050565b611d9081611d4b565b8114611d9b57600080fd5b50565b600081359050611dad81611d87565b92915050565b60008060408385031215611dca57611dc9611b48565b5b6000611dd885828601611d9e565b9250506020611de985828601611ce9565b9150509250929050565b600080600060608486031215611e0c57611e0b611b48565b5b6000611e1a86828701611d9e565b9350506020611e2b86828701611d9e565b9250506040611e3c86828701611ce9565b9150509250925092565b600060208284031215611e5c57611e5b611b48565b5b6000611e6a84828501611d9e565b91505092915050565b611e7c81611cc8565b82525050565b6000602082019050611e976000830184611e73565b92915050565b611ea681611bd7565b8114611eb157600080fd5b50565b600081359050611ec381611e9d565b92915050565b60008060408385031215611ee057611edf611b48565b5b6000611eee85828601611d9e565b9250506020611eff85828601611eb4565b9150509250929050565b600080fd5b600080fd5b7f4e487b7100000000000000000000000000000000000000000000000000000000600052604160045260246000fd5b611f4b82611c5c565b810181811067ffffffffffffffff82111715611f6a57611f69611f13565b5b80604052505050565b6000611f7d611b3e565b9050611f898282611f42565b919050565b600067ffffffffffffffff821115611fa957611fa8611f13565b5b611fb282611c5c565b9050602081019050919050565b82818337600083830152505050565b6000611fe1611fdc84611f8e565b611f73565b905082815260208101848484011115611ffd57611ffc611f0e565b5b612008848285611fbf565b509392505050565b600082601f83011261202557612024611f09565b5b8135612035848260208601611fce565b91505092915050565b6000806000806080858703121561205857612057611b48565b5b600061206687828801611d9e565b945050602061207787828801611d9e565b935050604061208887828801611ce9565b925050606085013567ffffffffffffffff8111156120a9576120a8611b4d565b5b6120b587828801612010565b91505092959194509250565b600067ffffffffffffffff8211156120dc576120db611f13565b5b6120e582611c5c565b9050602081019050919050565b6000612105612100846120c1565b611f73565b90508281526020810184848401111561212157612120611f0e565b5b61212c848285611fbf565b509392505050565b600082601f83011261214957612148611f09565b5b81356121598482602086016120f2565b91505092915050565b60006020828403121561217857612177611b48565b5b600082013567ffffffffffffffff81111561219657612195611b4d565b5b6121a284828501612134565b91505092915050565b600080604083850312156121c2576121c1611b48565b5b60006121d085828601611d9e565b92505060206121e185828601611d9e565b9150509250929050565b7f4e487b7100000000000000000000000000000000000000000000000000000000600052602260045260246000fd5b6000600282049050600182168061223257607f821691505b60208210811415612246576122456121eb565b5b50919050565b7f4552433732313a20617070726f76616c20746f2063757272656e74206f776e6560008201527f7200000000000000000000000000000000000000000000000000000000000000602082015250565b60006122a8602183611c18565b91506122b38261224c565b604082019050919050565b600060208201905081810360008301526122d78161229b565b9050919050565b7f4552433732313a20617070726f76652063616c6c6572206973206e6f7420746f60008201527f6b656e206f776e6572206f7220617070726f76656420666f7220616c6c000000602082015250565b600061233a603d83611c18565b9150612345826122de565b604082019050919050565b600060208201905081810360008301526123698161232d565b9050919050565b7f4552433732313a2063616c6c6572206973206e6f7420746f6b656e206f776e6560008201527f72206f7220617070726f76656400000000000000000000000000000000000000602082015250565b60006123cc602d83611c18565b91506123d782612370565b604082019050919050565b600060208201905081810360008301526123fb816123bf565b9050919050565b7f4552433732313a20696e76616c696420746f6b656e2049440000000000000000600082015250565b6000612438601883611c18565b915061244382612402565b602082019050919050565b600060208201905081810360008301526124678161242b565b9050919050565b7f4552433732313a2061646472657373207a65726f206973206e6f74206120766160008201527f6c6964206f776e65720000000000000000000000000000000000000000000000602082015250565b60006124ca602983611c18565b91506124d58261246e565b604082019050919050565b600060208201905081810360008301526124f9816124bd565b9050919050565b600081905092915050565b600061251682611c0d565b6125208185612500565b9350612530818560208601611c29565b80840191505092915050565b6000612548828561250b565b9150612554828461250b565b91508190509392505050565b7f4e487b7100000000000000000000000000000000000000000000000000000000600052601160045260246000fd5b600061259a82611cc8565b91507fffffffffffffffffffffffffffffffffffffffffffffffffffffffffffffffff8214156125cd576125cc612560565b5b600182019050919050565b7f4552433732313a207472616e736665722066726f6d20696e636f72726563742060008201527f6f776e6572000000000000000000000000000000000000000000000000000000602082015250565b6000612634602583611c18565b915061263f826125d8565b604082019050919050565b6000602082019050818103600083015261266381612627565b9050919050565b7f4552433732313a207472616e7366657220746f20746865207a65726f2061646460008201527f7265737300000000000000000000000000000000000000000000000000000000602082015250565b60006126c6602483611c18565b91506126d18261266a565b604082019050919050565b600060208201905081810360008301526126f5816126b9565b9050919050565b7f4552433732313a20617070726f766520746f2063616c6c657200000000000000600082015250565b6000612732601983611c18565b915061273d826126fc565b602082019050919050565b6000602082019050818103600083015261276181612725565b9050919050565b7f4552433732313a207472616e7366657220746f206e6f6e20455243373231526560008201527f63656976657220696d706c656d656e7465720000000000000000000000000000602082015250565b60006127c4603283611c18565b91506127cf82612768565b604082019050919050565b600060208201905081810360008301526127f3816127b7565b9050919050565b7f45524337323155524953746f726167653a2055524920736574206f66206e6f6e60008201527f6578697374656e7420746f6b656e000000000000000000000000000000000000602082015250565b6000612856602e83611c18565b9150612861826127fa565b604082019050919050565b6000602082019050818103600083015261288581612849565b9050919050565b600061289782611cc8565b91506128a283611cc8565b9250828210156128b5576128b4612560565b5b828203905092915050565b60006128cb82611cc8565b91506128d683611cc8565b9250827fffffffffffffffffffffffffffffffffffffffffffffffffffffffffffffffff0382111561290b5761290a612560565b5b828201905092915050565b600081519050919050565b600082825260208201905092915050565b600061293d82612916565b6129478185612921565b9350612957818560208601611c29565b61296081611c5c565b840191505092915050565b60006080820190506129806000830187611d5d565b61298d6020830186611d5d565b61299a6040830185611e73565b81810360608301526129ac8184612932565b905095945050505050565b6000815190506129c681611b7e565b92915050565b6000602082840312156129e2576129e1611b48565b5b60006129f0848285016129b7565b91505092915050565b7f4e487b7100000000000000000000000000000000000000000000000000000000600052601260045260246000fd5b7f4552433732313a206d696e7420746f20746865207a65726f2061646472657373600082015250565b6000612a5e602083611c18565b9150612a6982612a28565b602082019050919050565b60006020820190508181036000830152612a8d81612a51565b9050919050565b7f4552433732313a20746f6b656e20616c7265616479206d696e74656400000000600082015250565b6000612aca601c83611c18565b9150612ad582612a94565b602082019050919050565b60006020820190508181036000830152612af981612abd565b905091905056fea264697066735822122068a4004bd8377ae2b4e9e27a3b02ea0d39eda10fe835ae4b46e8f052e642219264736f6c63430008090033",
  "linkReferences": {},
  "deployedLinkReferences": {}
}